:1000000009C016C015C014C013C012C06CC010C007
:100010000FC043C011241FBECFE9CDBF20E0A0E632
:10002000B0E001C01D92AA36B207E1F789D042C103
:10003000E7CF97FF07C02FEF209369009195819537
:10004000910908C0009719F410926900089521E001
:100050002093690061E370E01CD12FEC3FE3A9011C
:10006000481B590BCA0157FDCF9626E095958795F9
:100070002A95E1F79093610080936000089582E0F3
:1000800087B98DEF86B908958FEF86BF82E083BF71
:100090008FBD89B7846089BF08951F920F920FB6F4
:1000A0000F9211248F939F9380916400882329F0ED
:1000B00080916400815080936400809167009091EA
:1000C0006800892B49F08091670090916800019742
:1000D00090936800809367009F918F910F900FBE5F
:1000E0000F901F9018951F920F920FB60F92112428
:1000F0002F938F939F938091600086BF80916900BA
:100100008823B1F0813011F4C19A01C0C198C09A1E
:100110000000C09880916500909166002091690070
:10012000821B910927FD939590936600809365004B
:100130009F918F912F910F900FBE0F901F90189548
:1001400080E886BD16BC109269008FEF90E0909316
:1001500061008093600087E087BBC29A95DF8FDFE4
:1001600078941092630010926200809162009091E6
:1001700063000097A9F480E090E0B49B06C0863C41
:1001800029E0920711F00196F8CF9C01225C3140E2
:100190002330384080F79093630080936200E5CF6E
:1001A0009093660080936500C6B3C295C170C298F3
:1001B000E12CF12CD5E00CED15E08091640081116B
:1001C00032C020916500309166008091620090916C
:1001D0006300281B390B37FF02C02F5F3F4F359557
:1001E000279521308FEF380714F421E03FEF2F3FA0
:1001F000310519F014F02FEF30E02E153F0541F0D6
:100200002E193F091216130634F08FEF9FEF05C029
:1002100080E090E002C081E090E0E80EF91EC701A6
:1002200008DFD093640086B38295817020916700C7
:1002300030916800232B09F4C29ACC2311F0C82F07
:10024000BCCF882309F4B9CF20E030E0B49B07C0CD
:10025000263C49E0340719F02F5F3F4FF7CFC90123
:10026000825C91408330984010F0C1E0A6CF80912D
:10027000620090916300820F931F969587959093EB
:100280006300809362001093680000936700C29837
:10029000ECCF0024552704C0080E591F880F991F62
:1002A000009729F076956795B8F37105B9F7802D19
:0802B000952F0895F894FFCF8B
:00000001FF
